{
    "txid": "8a2d6184ae60c7a884f6bd91681966859b4e4ec8db8e182ba76d7547e52c91e0",
    "hash": "8a2d6184ae60c7a884f6bd91681966859b4e4ec8db8e182ba76d7547e52c91e0",
    "version": 1,
    "size": 85,
    "vsize": 85,
    "locktime": 0,
    "vin": [
        {
            "txid": "6c2789243608b46f750f49ff24f6f79a78c3010f7e56951e045e5b7ea5d07bf7",
            "vout": 0,
            "scriptSig": {
                "asm": "",
                "hex": ""
            },
            "sequence": 4294967295
        }
    ],
    "vout": [
        {
            "value": 0.00100000,
            "n": 0,
            "scriptPubKey": {
                "asm": "OP_DUP OP_HASH160 3971799f23da748772533dfb6ce20fab59142c5a OP_EQUALVERIFY OP_CHECKSIG",
                "hex": "76a9143971799f23da748772533dfb6ce20fab59142c5a88ac",
                "reqSigs": 1,
                "type": "pubkeyhash",
                "addresses": [
                    "FB4qv85NhEuXxhnGN17Ydqg6Z5y7zpaLZH"
                ]
            }
        }
    ],
    "flo-data": "",
    "hex": "0100000001f77bd0a57e5b5e041e95567e0f01c3789af7f624ff490f756fb408362489276c0000000000ffffffff01a0860100000000001976a9143971799f23da748772533dfb6ce20fab59142c5a88ac00000000"
}
