{
    "txid": "ad4ef936e18278fc170fc952c007c089c1a1dd67c5799b83407ccfc0bc47efc2",
    "hash": "ad4ef936e18278fc170fc952c007c089c1a1dd67c5799b83407ccfc0bc47efc2",
    "version": 2,
    "size": 177,
    "vsize": 177,
    "locktime": 0,
    "vin": [
        {
            "txid": "69e9c12d30a6cd598a31ddfcaabeb9d9f0baf8938bf0ba6610beb04f589cc5ef",
            "vout": 0,
            "scriptSig": {
                "asm": "",
                "hex": ""
            },
            "sequence": 4294967295
        }
    ],
    "vout": [
        {
            "value": 0.00200000,
            "n": 0,
            "scriptPubKey": {
                "asm": "OP_DUP OP_HASH160 2a4cac308b5a411caeaa901e1de46aa4594bae45 OP_EQUALVERIFY OP_CHECKSIG",
                "hex": "76a9142a4cac308b5a411caeaa901e1de46aa4594bae4588ac",
                "reqSigs": 1,
                "type": "pubkeyhash",
                "addresses": [
                    "F9gmhAXGzA8oB9zUofz6dAjT9CgSScitzH"
                ]
            }
        }, 
        {
            "value": 0.00000000,
            "n": 1,
            "scriptPubKey": {
                "asm": "OP_RETURN 54686973204f505f52455455524e207472616e73616374696f6e206f7574707574207761732063726561746564206279206d6f646966696564206372656174657261777472616e73616374696f6e2e",
                "hex": "6a4c4f54686973204f505f52455455524e207472616e73616374696f6e206f7574707574207761732063726561746564206279206d6f646966696564206372656174657261777472616e73616374696f6e2e",
                "type": "nulldata"
            }
        }
    ],
    "tx-comment": "",
    "hex": "0200000001efc59c584fb0be1066baf08b93f8baf0d9b9beaafcdd318a59cda6302dc1e9690000000000ffffffff02400d0300000000001976a9142a4cac308b5a411caeaa901e1de46aa4594bae4588ac0000000000000000526a4c4f54686973204f505f52455455524e207472616e73616374696f6e206f7574707574207761732063726561746564206279206d6f646966696564206372656174657261777472616e73616374696f6e2e0000000000"
}
