{
    "txid": "5da83d5b6dce590837a33842e891c903d60ecde7ae6897dccebb9599425b8b40",
    "hash": "5da83d5b6dce590837a33842e891c903d60ecde7ae6897dccebb9599425b8b40",
    "version": 2,
    "size": 86,
    "vsize": 86,
    "locktime": 0,
    "vin": [
        {
            "txid": "69e9c12d30a6cd598a31ddfcaabeb9d9f0baf8938bf0ba6610beb04f589cc5ef",
            "vout": 0,
            "scriptSig": {
                "asm": "",
                "hex": ""
            },
            "sequence": 4294967293
        }
    ],
    "vout": [
        {
            "value": 0.00200000,
            "n": 0,
            "scriptPubKey": {
                "asm": "OP_DUP OP_HASH160 4fd28e5baccc1824f48d96c829f8af4e8157ad0f OP_EQUALVERIFY OP_CHECKSIG",
                "hex": "76a9144fd28e5baccc1824f48d96c829f8af4e8157ad0f88ac",
                "reqSigs": 1,
                "type": "pubkeyhash",
                "addresses": [
                    "FD7B5eccinFRoq7Drh24bexb9uWdYwKjyQ"
                ]
            }
        }
    ],
    "flo-data": "",
    "hex": "0200000001efc59c584fb0be1066baf08b93f8baf0d9b9beaafcdd318a59cda6302dc1e9690000000000fdffffff01400d0300000000001976a9144fd28e5baccc1824f48d96c829f8af4e8157ad0f88ac0000000000"
}
