{
    "txid": "4c78ad73fd0406b2bcc735c1f7fe6dcc382aa21e2996b17f7950e23a320e726a",
    "hash": "4c78ad73fd0406b2bcc735c1f7fe6dcc382aa21e2996b17f7950e23a320e726a",
    "version": 1,
    "size": 176,
    "vsize": 176,
    "locktime": 0,
    "vin": [
        {
            "txid": "69e9c12d30a6cd598a31ddfcaabeb9d9f0baf8938bf0ba6610beb04f589cc5ef",
            "vout": 0,
            "scriptSig": {
                "asm": "",
                "hex": ""
            },
            "sequence": 4294967295
        }
    ],
    "vout": [
        {
            "value": 0.00200000,
            "n": 0,
            "scriptPubKey": {
                "asm": "OP_DUP OP_HASH160 b7a095022efd63a85e8710ad688e7207edf28ac0 OP_EQUALVERIFY OP_CHECKSIG",
                "hex": "76a914b7a095022efd63a85e8710ad688e7207edf28ac088ac",
                "reqSigs": 1,
                "type": "pubkeyhash",
                "addresses": [
                    "FNa3VLtmj4u8Q8PfTyJiRJCU2dprFZiRoD"
                ]
            }
        }, 
        {
            "value": 4.00000000,
            "n": 1,
            "scriptPubKey": {
                "asm": "OP_RETURN 54686973204f505f52455455524e207472616e73616374696f6e206f7574707574207761732063726561746564206279206d6f646966696564206372656174657261777472616e73616374696f6e2e",
                "hex": "6a4c4f54686973204f505f52455455524e207472616e73616374696f6e206f7574707574207761732063726561746564206279206d6f646966696564206372656174657261777472616e73616374696f6e2e",
                "type": "nulldata"
            }
        }
    ],
    "tx-comment": "",
    "hex": "0100000001efc59c584fb0be1066baf08b93f8baf0d9b9beaafcdd318a59cda6302dc1e9690000000000ffffffff02400d0300000000001976a914b7a095022efd63a85e8710ad688e7207edf28ac088ac0084d71700000000526a4c4f54686973204f505f52455455524e207472616e73616374696f6e206f7574707574207761732063726561746564206279206d6f646966696564206372656174657261777472616e73616374696f6e2e00000000"
}
